{
  "contractName": "Contract",
  "abi": [
    {
      "constant": true,
      "inputs": [
        {
          "name": "",
          "type": "address"
        }
      ],
      "name": "patients",
      "outputs": [
        {
          "name": "patientID",
          "type": "uint256"
        },
        {
          "name": "patientAddress",
          "type": "address"
        },
        {
          "name": "name",
          "type": "string"
        },
        {
          "name": "age",
          "type": "uint256"
        },
        {
          "name": "gender",
          "type": "string"
        },
        {
          "name": "bimari",
          "type": "string"
        },
        {
          "name": "requestID",
          "type": "uint256"
        }
      ],
      "payable": false,
      "stateMutability": "view",
      "type": "function"
    },
    {
      "constant": true,
      "inputs": [],
      "name": "requestCount",
      "outputs": [
        {
          "name": "",
          "type": "uint256"
        }
      ],
      "payable": false,
      "stateMutability": "view",
      "type": "function"
    },
    {
      "constant": true,
      "inputs": [],
      "name": "doctorCount",
      "outputs": [
        {
          "name": "",
          "type": "uint256"
        }
      ],
      "payable": false,
      "stateMutability": "view",
      "type": "function"
    },
    {
      "constant": true,
      "inputs": [],
      "name": "patientCount",
      "outputs": [
        {
          "name": "",
          "type": "uint256"
        }
      ],
      "payable": false,
      "stateMutability": "view",
      "type": "function"
    },
    {
      "constant": true,
      "inputs": [
        {
          "name": "",
          "type": "uint256"
        }
      ],
      "name": "patientts",
      "outputs": [
        {
          "name": "patientID",
          "type": "uint256"
        },
        {
          "name": "patientAddress",
          "type": "address"
        },
        {
          "name": "name",
          "type": "string"
        },
        {
          "name": "age",
          "type": "uint256"
        },
        {
          "name": "gender",
          "type": "string"
        },
        {
          "name": "bimari",
          "type": "string"
        },
        {
          "name": "requestID",
          "type": "uint256"
        }
      ],
      "payable": false,
      "stateMutability": "view",
      "type": "function"
    },
    {
      "constant": false,
      "inputs": [
        {
          "name": "_name",
          "type": "string"
        },
        {
          "name": "_age",
          "type": "uint256"
        },
        {
          "name": "_gender",
          "type": "string"
        },
        {
          "name": "_bimari",
          "type": "string"
        }
      ],
      "name": "registerPatient",
      "outputs": [],
      "payable": false,
      "stateMutability": "nonpayable",
      "type": "function"
    },
    {
      "constant": true,
      "inputs": [],
      "name": "checkAccount",
      "outputs": [
        {
          "name": "",
          "type": "string"
        }
      ],
      "payable": false,
      "stateMutability": "view",
      "type": "function"
    },
    {
      "constant": false,
      "inputs": [
        {
          "name": "_name",
          "type": "string"
        }
      ],
      "name": "registerDoctor",
      "outputs": [],
      "payable": false,
      "stateMutability": "nonpayable",
      "type": "function"
    },
    {
      "constant": true,
      "inputs": [],
      "name": "checkRequestIDForDoctor",
      "outputs": [
        {
          "name": "",
          "type": "uint256"
        }
      ],
      "payable": false,
      "stateMutability": "view",
      "type": "function"
    },
    {
      "constant": true,
      "inputs": [],
      "name": "checkRequestedIDForPatient",
      "outputs": [
        {
          "name": "",
          "type": "uint256"
        }
      ],
      "payable": false,
      "stateMutability": "view",
      "type": "function"
    },
    {
      "constant": true,
      "inputs": [
        {
          "name": "_requestID",
          "type": "uint256"
        }
      ],
      "name": "getPatientInfo",
      "outputs": [
        {
          "components": [
            {
              "name": "patientID",
              "type": "uint256"
            },
            {
              "name": "patientAddress",
              "type": "address"
            },
            {
              "name": "name",
              "type": "string"
            },
            {
              "name": "age",
              "type": "uint256"
            },
            {
              "name": "gender",
              "type": "string"
            },
            {
              "name": "bimari",
              "type": "string"
            },
            {
              "name": "requestID",
              "type": "uint256"
            }
          ],
          "name": "",
          "type": "tuple"
        }
      ],
      "payable": false,
      "stateMutability": "view",
      "type": "function"
    },
    {
      "constant": true,
      "inputs": [
        {
          "name": "_requestID",
          "type": "uint256"
        }
      ],
      "name": "getRequestInfo",
      "outputs": [
        {
          "components": [
            {
              "name": "requestID",
              "type": "uint256"
            },
            {
              "name": "from",
              "type": "address"
            },
            {
              "name": "to",
              "type": "address"
            },
            {
              "name": "isAccess",
              "type": "string"
            },
            {
              "name": "treatMent",
              "type": "string"
            }
          ],
          "name": "",
          "type": "tuple"
        }
      ],
      "payable": false,
      "stateMutability": "view",
      "type": "function"
    },
    {
      "constant": false,
      "inputs": [
        {
          "name": "_patientAddress",
          "type": "address"
        }
      ],
      "name": "requestService",
      "outputs": [],
      "payable": false,
      "stateMutability": "nonpayable",
      "type": "function"
    },
    {
      "constant": false,
      "inputs": [
        {
          "name": "_requestID",
          "type": "uint256"
        },
        {
          "name": "_medicine",
          "type": "string"
        }
      ],
      "name": "sendTreatMent",
      "outputs": [],
      "payable": false,
      "stateMutability": "nonpayable",
      "type": "function"
    },
    {
      "constant": false,
      "inputs": [
        {
          "name": "_requestID",
          "type": "uint256"
        }
      ],
      "name": "giveAccess",
      "outputs": [],
      "payable": false,
      "stateMutability": "nonpayable",
      "type": "function"
    },
    {
      "constant": false,
      "inputs": [
        {
          "name": "_requestID",
          "type": "uint256"
        }
      ],
      "name": "declineRequest",
      "outputs": [],
      "payable": false,
      "stateMutability": "nonpayable",
      "type": "function"
    }
  ],
  "bytecode": "0x608060405234801561001057600080fd5b506128ab806100206000396000f3fe6080604052600436106100e0576000357c0100000000000000000000000000000000000000000000000000000000900480630869cfbc146100e557806308d80cd3146101285780630b81604514610151578063253756f11461018e578063399b4ddc146101b957806350a1e16a146101e25780635badbe4c1461020b5780635c13a4391461023657806378522bc414610261578063828927c41461028c5780638f09ab5b146102c957806394c17141146102f2578063a0303c411461031b578063c18d0c2414610346578063fa2323d214610389578063fd883c5a146103b2575b600080fd5b3480156100f157600080fd5b5061010c60048036036101079190810190612193565b6103dd565b60405161011f979695949392919061273b565b60405180910390f35b34801561013457600080fd5b5061014f600480360361014a91908101906122ba565b610607565b005b34801561015d57600080fd5b50610178600480360361017391908101906122ba565b61073e565b60405161018591906126fe565b60405180910390f35b34801561019a57600080fd5b506101a36109b9565b6040516101b09190612720565b60405180910390f35b3480156101c557600080fd5b506101e060048036036101db91908101906122ba565b610ad6565b005b3480156101ee57600080fd5b5061020960048036036102049190810190612193565b610d15565b005b34801561021757600080fd5b50610220611015565b60405161022d9190612720565b60405180910390f35b34801561024257600080fd5b5061024b61101b565b604051610258919061263a565b60405180910390f35b34801561026d57600080fd5b50610276611203565b6040516102839190612720565b60405180910390f35b34801561029857600080fd5b506102b360048036036102ae91908101906122ba565b611209565b6040516102c091906126dc565b60405180910390f35b3480156102d557600080fd5b506102f060048036036102eb91908101906121bc565b61154c565b005b3480156102fe57600080fd5b50610319600480360361031491908101906122e3565b61169a565b005b34801561032757600080fd5b506103306117f9565b60405161033d9190612720565b60405180910390f35b34801561035257600080fd5b5061036d600480360361036891908101906122ba565b6117ff565b604051610380979695949392919061273b565b60405180910390f35b34801561039557600080fd5b506103b060048036036103ab9190810190612201565b611a29565b005b3480156103be57600080fd5b506103c7611dad565b6040516103d49190612720565b60405180910390f35b60036020528060005260406000206000915090508060000154908060010160009054906101000a900473ffffffffffffffffffffffffffffffffffffffff1690806002018054600181600116156101000203166002900480601f0160208091040260200160405190810160405280929190818152602001828054600181600116156101000203166002900480156104b55780601f1061048a576101008083540402835291602001916104b5565b820191906000526020600020905b81548152906001019060200180831161049857829003601f168201915b505050505090806003015490806004018054600181600116156101000203166002900480601f0160208091040260200160405190810160405280929190818152602001828054600181600116156101000203166002900480156105595780601f1061052e57610100808354040283529160200191610559565b820191906000526020600020905b81548152906001019060200180831161053c57829003601f168201915b505050505090806005018054600181600116156101000203166002900480601f0160208091040260200160405190810160405280929190818152602001828054600181600116156101000203166002900480156105f75780601f106105cc576101008083540402835291602001916105f7565b820191906000526020600020905b8154815290600101906020018083116105da57829003601f168201915b5050505050908060060154905087565b600073ffffffffffffffffffffffffffffffffffffffff16600360003373ffffffffffffffffffffffffffffffffffffffff1673ffffffffffffffffffffffffffffffffffffffff16815260200190815260200160002060010160009054906101000a900473ffffffffffffffffffffffffffffffffffffffff1673ffffffffffffffffffffffffffffffffffffffff16141515156106db576040517f08c379a00000000000000000000000000000000000000000000000000000000081526004016106d29061267c565b60405180910390fd5b6040805190810160405280600381526020017f596573000000000000000000000000000000000000000000000000000000000081525060056000838152602001908152602001600020600301908051906020019061073a929190611eca565b5050565b610746611f4a565b60008211801561075857506002548211155b1515610799576040517f08c379a0000000000000000000000000000000000000000000000000000000008152600401610790906126bc565b60405180910390fd5b6005600083815260200190815260200160002060a06040519081016040529081600082015481526020016001820160009054906101000a900473ffffffffffffffffffffffffffffffffffffffff1673ffffffffffffffffffffffffffffffffffffffff1673ffffffffffffffffffffffffffffffffffffffff1681526020016002820160009054906101000a900473ffffffffffffffffffffffffffffffffffffffff1673ffffffffffffffffffffffffffffffffffffffff1673ffffffffffffffffffffffffffffffffffffffff168152602001600382018054600181600116156101000203166002900480601f0160208091040260200160405190810160405280929190818152602001828054600181600116156101000203166002900480156109075780601f106108dc57610100808354040283529160200191610907565b820191906000526020600020905b8154815290600101906020018083116108ea57829003601f168201915b50505050508152602001600482018054600181600116156101000203166002900480601f0160208091040260200160405190810160405280929190818152602001828054600181600116156101000203166002900480156109a95780601f1061097e576101008083540402835291602001916109a9565b820191906000526020600020905b81548152906001019060200180831161098c57829003601f168201915b5050505050815250509050919050565b60008073ffffffffffffffffffffffffffffffffffffffff16600460003373ffffffffffffffffffffffffffffffffffffffff1673ffffffffffffffffffffffffffffffffffffffff16815260200190815260200160002060010160009054906101000a900473ffffffffffffffffffffffffffffffffffffffff1673ffffffffffffffffffffffffffffffffffffffff1614151515610a8e576040517f08c379a0000000000000000000000000000000000000000000000000000000008152600401610a859061269c565b60405180910390fd5b600460003373ffffffffffffffffffffffffffffffffffffffff1673ffffffffffffffffffffffffffffffffffffffff16815260200190815260200160002060030154905090565b600073ffffffffffffffffffffffffffffffffffffffff16600360003373ffffffffffffffffffffffffffffffffffffffff1673ffffffffffffffffffffffffffffffffffffffff16815260200190815260200160002060010160009054906101000a900473ffffffffffffffffffffffffffffffffffffffff1673ffffffffffffffffffffffffffffffffffffffff1614151515610baa576040517f08c379a0000000000000000000000000000000000000000000000000000000008152600401610ba19061267c565b60405180910390fd5b6040805190810160405280600281526020017f4e6f000000000000000000000000000000000000000000000000000000000000815250600560008381526020019081526020016000206003019080519060200190610c09929190611eca565b5060006005600083815260200190815260200160002060020160009054906101000a900473ffffffffffffffffffffffffffffffffffffffff16905060006005600084815260200190815260200160002060010160009054906101000a900473ffffffffffffffffffffffffffffffffffffffff1690506000600360008473ffffffffffffffffffffffffffffffffffffffff1673ffffffffffffffffffffffffffffffffffffffff168152602001908152602001600020600601819055506000600460008373ffffffffffffffffffffffffffffffffffffffff1673ffffffffffffffffffffffffffffffffffffffff16815260200190815260200160002060030181905550505050565b600073ffffffffffffffffffffffffffffffffffffffff16600460003373ffffffffffffffffffffffffffffffffffffffff1673ffffffffffffffffffffffffffffffffffffffff16815260200190815260200160002060010160009054906101000a900473ffffffffffffffffffffffffffffffffffffffff1673ffffffffffffffffffffffffffffffffffffffff1614151515610de9576040517f08c379a0000000000000000000000000000000000000000000000000000000008152600401610de09061265c565b60405180910390fd5b60026000815480929190600101919050555060a06040519081016040528060025481526020013373ffffffffffffffffffffffffffffffffffffffff1681526020018273ffffffffffffffffffffffffffffffffffffffff1681526020016040805190810160405280600281526020017f4e6f000000000000000000000000000000000000000000000000000000000000815250815260200160206040519081016040528060008152508152506005600060025481526020019081526020016000206000820151816000015560208201518160010160006101000a81548173ffffffffffffffffffffffffffffffffffffffff021916908373ffffffffffffffffffffffffffffffffffffffff16021790555060408201518160020160006101000a81548173ffffffffffffffffffffffffffffffffffffffff021916908373ffffffffffffffffffffffffffffffffffffffff1602179055506060820151816003019080519060200190610f5f929190611fa6565b506080820151816004019080519060200190610f7c929190611fa6565b50905050600254600360008373ffffffffffffffffffffffffffffffffffffffff1673ffffffffffffffffffffffffffffffffffffffff16815260200190815260200160002060060181905550600254600460003373ffffffffffffffffffffffffffffffffffffffff1673ffffffffffffffffffffffffffffffffffffffff1681526020019081526020016000206003018190555050565b60025481565b6060600073ffffffffffffffffffffffffffffffffffffffff16600360003373ffffffffffffffffffffffffffffffffffffffff1673ffffffffffffffffffffffffffffffffffffffff16815260200190815260200160002060010160009054906101000a900473ffffffffffffffffffffffffffffffffffffffff1673ffffffffffffffffffffffffffffffffffffffff161415156110f2576040805190810160405280600781526020017f50617469656e74000000000000000000000000000000000000000000000000008152509050611200565b600073ffffffffffffffffffffffffffffffffffffffff16600460003373ffffffffffffffffffffffffffffffffffffffff1673ffffffffffffffffffffffffffffffffffffffff16815260200190815260200160002060010160009054906101000a900473ffffffffffffffffffffffffffffffffffffffff1673ffffffffffffffffffffffffffffffffffffffff161415156111c7576040805190810160405280600681526020017f446f63746f7200000000000000000000000000000000000000000000000000008152509050611200565b6040805190810160405280600281526020017f4e6f00000000000000000000000000000000000000000000000000000000000081525090505b90565b60005481565b611211612026565b60008211801561122357506002548211155b1515611264576040517f08c379a000000000000000000000000000000000000000000000000000000000815260040161125b906126bc565b60405180910390fd5b60006005600084815260200190815260200160002060020160009054906101000a900473ffffffffffffffffffffffffffffffffffffffff169050600360008273ffffffffffffffffffffffffffffffffffffffff1673ffffffffffffffffffffffffffffffffffffffff16815260200190815260200160002060e06040519081016040529081600082015481526020016001820160009054906101000a900473ffffffffffffffffffffffffffffffffffffffff1673ffffffffffffffffffffffffffffffffffffffff1673ffffffffffffffffffffffffffffffffffffffff168152602001600282018054600181600116156101000203166002900480601f0160208091040260200160405190810160405280929190818152602001828054600181600116156101000203166002900480156113e35780601f106113b8576101008083540402835291602001916113e3565b820191906000526020600020905b8154815290600101906020018083116113c657829003601f168201915b5050505050815260200160038201548152602001600482018054600181600116156101000203166002900480601f01602080910402602001604051908101604052809291908181526020018280546001816001161561010002031660029004801561148f5780601f106114645761010080835404028352916020019161148f565b820191906000526020600020905b81548152906001019060200180831161147257829003601f168201915b50505050508152602001600582018054600181600116156101000203166002900480601f0160208091040260200160405190810160405280929190818152602001828054600181600116156101000203166002900480156115315780601f1061150657610100808354040283529160200191611531565b820191906000526020600020905b81548152906001019060200180831161151457829003601f168201915b50505050508152602001600682015481525050915050919050565b600080815480929190600101919050555060806040519081016040528060005481526020013373ffffffffffffffffffffffffffffffffffffffff16815260200183838080601f016020809104026020016040519081016040528093929190818152602001838380828437600081840152601f19601f8201169050808301925050505050505081526020016000815250600460003373ffffffffffffffffffffffffffffffffffffffff1673ffffffffffffffffffffffffffffffffffffffff1681526020019081526020016000206000820151816000015560208201518160010160006101000a81548173ffffffffffffffffffffffffffffffffffffffff021916908373ffffffffffffffffffffffffffffffffffffffff1602179055506040820151816002019080519060200190611688929190611fa6565b50606082015181600301559050505050565b600073ffffffffffffffffffffffffffffffffffffffff16600460003373ffffffffffffffffffffffffffffffffffffffff1673ffffffffffffffffffffffffffffffffffffffff16815260200190815260200160002060010160009054906101000a900473ffffffffffffffffffffffffffffffffffffffff1673ffffffffffffffffffffffffffffffffffffffff161415151561176e576040517f08c379a00000000000000000000000000000000000000000000000000000000081526004016117659061265c565b60405180910390fd5b6040805190810160405280600481526020017f46756c6c000000000000000000000000000000000000000000000000000000008152506005600085815260200190815260200160002060030190805190602001906117cd929190611eca565b5081816005600086815260200190815260200160002060040191906117f392919061207a565b50505050565b60015481565b60066020528060005260406000206000915090508060000154908060010160009054906101000a900473ffffffffffffffffffffffffffffffffffffffff1690806002018054600181600116156101000203166002900480601f0160208091040260200160405190810160405280929190818152602001828054600181600116156101000203166002900480156118d75780601f106118ac576101008083540402835291602001916118d7565b820191906000526020600020905b8154815290600101906020018083116118ba57829003601f168201915b505050505090806003015490806004018054600181600116156101000203166002900480601f01602080910402602001604051908101604052809291908181526020018280546001816001161561010002031660029004801561197b5780601f106119505761010080835404028352916020019161197b565b820191906000526020600020905b81548152906001019060200180831161195e57829003601f168201915b505050505090806005018054600181600116156101000203166002900480601f016020809104026020016040519081016040528092919081815260200182805460018160011615610100020316600290048015611a195780601f106119ee57610100808354040283529160200191611a19565b820191906000526020600020905b8154815290600101906020018083116119fc57829003601f168201915b5050505050908060060154905087565b60016000815480929190600101919050555060e06040519081016040528060015481526020013373ffffffffffffffffffffffffffffffffffffffff16815260200188888080601f016020809104026020016040519081016040528093929190818152602001838380828437600081840152601f19601f82011690508083019250505050505050815260200186815260200185858080601f016020809104026020016040519081016040528093929190818152602001838380828437600081840152601f19601f82011690508083019250505050505050815260200183838080601f016020809104026020016040519081016040528093929190818152602001838380828437600081840152601f19601f8201169050808301925050505050505081526020016000815250600360003373ffffffffffffffffffffffffffffffffffffffff1673ffffffffffffffffffffffffffffffffffffffff1681526020019081526020016000206000820151816000015560208201518160010160006101000a81548173ffffffffffffffffffffffffffffffffffffffff021916908373ffffffffffffffffffffffffffffffffffffffff1602179055506040820151816002019080519060200190611c00929190611fa6565b50606082015181600301556080820151816004019080519060200190611c27929190611fa6565b5060a0820151816005019080519060200190611c44929190611fa6565b5060c0820151816006015590505060e06040519081016040528060015481526020013373ffffffffffffffffffffffffffffffffffffffff1681526020016020604051908101604052806000815250815260200160008152602001602060405190810160405280600081525081526020016020604051908101604052806000815250815260200160008152506006600060015481526020019081526020016000206000820151816000015560208201518160010160006101000a81548173ffffffffffffffffffffffffffffffffffffffff021916908373ffffffffffffffffffffffffffffffffffffffff1602179055506040820151816002019080519060200190611d52929190611fa6565b50606082015181600301556080820151816004019080519060200190611d79929190611fa6565b5060a0820151816005019080519060200190611d96929190611fa6565b5060c0820151816006015590505050505050505050565b60008073ffffffffffffffffffffffffffffffffffffffff16600360003373ffffffffffffffffffffffffffffffffffffffff1673ffffffffffffffffffffffffffffffffffffffff16815260200190815260200160002060010160009054906101000a900473ffffffffffffffffffffffffffffffffffffffff1673ffffffffffffffffffffffffffffffffffffffff1614151515611e82576040517f08c379a0000000000000000000000000000000000000000000000000000000008152600401611e799061267c565b60405180910390fd5b600360003373ffffffffffffffffffffffffffffffffffffffff1673ffffffffffffffffffffffffffffffffffffffff16815260200190815260200160002060060154905090565b828054600181600116156101000203166002900490600052602060002090601f016020900481019282601f10611f0b57805160ff1916838001178555611f39565b82800160010185558215611f39579182015b82811115611f38578251825591602001919060010190611f1d565b5b509050611f4691906120fa565b5090565b60a06040519081016040528060008152602001600073ffffffffffffffffffffffffffffffffffffffff168152602001600073ffffffffffffffffffffffffffffffffffffffff16815260200160608152602001606081525090565b828054600181600116156101000203166002900490600052602060002090601f016020900481019282601f10611fe757805160ff1916838001178555612015565b82800160010185558215612015579182015b82811115612014578251825591602001919060010190611ff9565b5b50905061202291906120fa565b5090565b60e06040519081016040528060008152602001600073ffffffffffffffffffffffffffffffffffffffff16815260200160608152602001600081526020016060815260200160608152602001600081525090565b828054600181600116156101000203166002900490600052602060002090601f016020900481019282601f106120bb57803560ff19168380011785556120e9565b828001600101855582156120e9579182015b828111156120e85782358255916020019190600101906120cd565b5b5090506120f691906120fa565b5090565b61211c91905b80821115612118576000816000905550600101612100565b5090565b90565b600061212b8235612811565b905092915050565b60008083601f840112151561214757600080fd5b8235905067ffffffffffffffff81111561216057600080fd5b60208301915083600182028301111561217857600080fd5b9250929050565b600061218b8235612823565b905092915050565b6000602082840312156121a557600080fd5b60006121b38482850161211f565b91505092915050565b600080602083850312156121cf57600080fd5b600083013567ffffffffffffffff8111156121e957600080fd5b6121f585828601612133565b92509250509250929050565b60008060008060008060006080888a03121561221c57600080fd5b600088013567ffffffffffffffff81111561223657600080fd5b6122428a828b01612133565b975097505060206122558a828b0161217f565b955050604088013567ffffffffffffffff81111561227257600080fd5b61227e8a828b01612133565b9450945050606088013567ffffffffffffffff81111561229d57600080fd5b6122a98a828b01612133565b925092505092959891949750929550565b6000602082840312156122cc57600080fd5b60006122da8482850161217f565b91505092915050565b6000806000604084860312156122f857600080fd5b60006123068682870161217f565b935050602084013567ffffffffffffffff81111561232357600080fd5b61232f86828701612133565b92509250509250925092565b612344816127d5565b82525050565b6000612355826127ca565b80845261236981602086016020860161282d565b61237281612860565b602085010191505092915050565b600061238b826127bf565b80845261239f81602086016020860161282d565b6123a881612860565b602085010191505092915050565b6000602182527f4f6e6c7920636c69656e74732063616e2072657175657374207365727669636560208301527f73000000000000000000000000000000000000000000000000000000000000006040830152606082019050919050565b6000603382527f4f6e6c7920736572766963652070726f7669646572732063616e20636865636b60208301527f20726571756573746564207365727669636573000000000000000000000000006040830152606082019050919050565b6000602982527f4f6e6c792064636f746f72732063616e20636865636b2072657175657374656460208301527f20736572766963657300000000000000000000000000000000000000000000006040830152606082019050919050565b6000601282527f496e76616c6964207265717565737420494400000000000000000000000000006020830152604082019050919050565b600060e08301600083015161251c600086018261262b565b50602083015161252f602086018261233b565b50604083015184820360408601526125478282612380565b915050606083015161255c606086018261262b565b50608083015184820360808601526125748282612380565b91505060a083015184820360a086015261258e8282612380565b91505060c08301516125a360c086018261262b565b508091505092915050565b600060a0830160008301516125c6600086018261262b565b5060208301516125d9602086018261233b565b5060408301516125ec604086018261233b565b50606083015184820360608601526126048282612380565b9150506080830151848203608086015261261e8282612380565b9150508091505092915050565b61263481612807565b82525050565b60006020820190508181036000830152612654818461234a565b905092915050565b60006020820190508181036000830152612675816123b6565b9050919050565b6000602082019050818103600083015261269581612413565b9050919050565b600060208201905081810360008301526126b581612470565b9050919050565b600060208201905081810360008301526126d5816124cd565b9050919050565b600060208201905081810360008301526126f68184612504565b905092915050565b6000602082019050818103600083015261271881846125ae565b905092915050565b6000602082019050612735600083018461262b565b92915050565b600060e082019050612750600083018a61262b565b61275d602083018961233b565b818103604083015261276f8188612380565b905061277e606083018761262b565b81810360808301526127908186612380565b905081810360a08301526127a48185612380565b90506127b360c083018461262b565b98975050505050505050565b600081519050919050565b600081519050919050565b60006127e0826127e7565b9050919050565b600073ffffffffffffffffffffffffffffffffffffffff82169050919050565b6000819050919050565b600061281c826127e7565b9050919050565b6000819050919050565b60005b8381101561284b578082015181840152602081019050612830565b8381111561285a576000848401525b50505050565b6000601f19601f830116905091905056fea265627a7a7230582026def757ac6fcab394238d31ee3f1abc74998123b681efe7f4e587c2468600966c6578706572696d656e74616cf50037",
  "source": "// SPDX-License-Identifier: MIT\r\npragma solidity >=0.4.0 <0.9.0;\r\npragma experimental ABIEncoderV2;\r\n\r\ncontract Contract{\r\n\r\n    struct Patient{\r\n        uint patientID;\r\n        address patientAddress;\r\n        string name;\r\n        uint age;\r\n        string gender;\r\n        string bimari;\r\n        uint requestID;\r\n    }\r\n    struct Doctor{\r\n        uint doctorID;\r\n        address doctorAddress;\r\n        string name;\r\n        uint requestID;\r\n    }\r\n    struct Request {\r\n        uint requestID;\r\n        address from;\r\n        address to;\r\n        string isAccess;\r\n        string treatMent;\r\n    }\r\n    uint public doctorCount;\r\n    uint public patientCount;\r\n    uint public requestCount;\r\n    mapping (address => Patient) public patients;\r\n    mapping (address => Doctor) private doctors;\r\n    mapping (uint => Request) private requests;\r\n    mapping (uint =>Patient) public patientts;\r\n\r\n    function registerPatient(string calldata _name,uint _age,string calldata _gender,string calldata _bimari) external {\r\n        patientCount++;\r\n        patients[msg.sender]=Patient({\r\n            patientID:patientCount,\r\n            patientAddress:msg.sender,\r\n            name:_name,\r\n            age:_age,\r\n            gender:_gender,\r\n            bimari:_bimari,\r\n            requestID:0\r\n        });\r\n        patientts[patientCount]=Patient({\r\n            patientID:patientCount,\r\n            patientAddress:msg.sender,\r\n            name:\"\",\r\n            age:0,\r\n            gender:\"\",\r\n            bimari:\"\",\r\n            requestID:0\r\n        });\r\n    }\r\n    function checkAccount() external view returns (string memory) {\r\n        if (patients[msg.sender].patientAddress != address(0)) {\r\n            return \"Patient\";\r\n        }\r\n        else if (doctors[msg.sender].doctorAddress != address(0)) {\r\n            return \"Doctor\";\r\n        }\r\n        else {\r\n            return \"No\";\r\n        }\r\n    }\r\n    function registerDoctor(string calldata _name) external {\r\n       // require(clients[msg.sender].clientAddress == address(0), \"Client already registered\");\r\n        doctorCount++;\r\n        doctors[msg.sender] = Doctor({\r\n            doctorID:doctorCount,\r\n            doctorAddress: msg.sender,\r\n            name: _name,\r\n            requestID:0\r\n        });\r\n    }\r\n    function checkRequestIDForDoctor() external view returns (uint) {\r\n        require(doctors[msg.sender].doctorAddress != address(0), \"Only dcotors can check requested services\");\r\n        return doctors[msg.sender].requestID;\r\n    }\r\n    function checkRequestedIDForPatient() external view returns (uint) {\r\n        require(patients[msg.sender].patientAddress != address(0), \"Only service providers can check requested services\");\r\n        return patients[msg.sender].requestID;\r\n    }\r\n    function getPatientInfo(uint _requestID) external view returns (Patient memory) {\r\n        require(_requestID > 0 && _requestID <= requestCount, \"Invalid request ID\");\r\n        address patientAddress = requests[_requestID].to;\r\n        return patients[patientAddress];\r\n    }\r\n    function getRequestInfo(uint _requestID) external view returns (Request memory) {\r\n        require(_requestID > 0 && _requestID <= requestCount, \"Invalid request ID\");\r\n        // address patientAddress = requests[_requestID].to;\r\n        return requests[_requestID];\r\n    }\r\n\r\n    function requestService(address _patientAddress) external {\r\n        require(doctors[msg.sender].doctorAddress != address(0), \"Only clients can request services\");\r\n        // Service memory service = services[_serviceID];\r\n        // address serviceProviderAddress = service.serviceProviderAddress;\r\n        // Increment requestCount\r\n        requestCount++;\r\n\r\n        // Create a new Request\r\n        requests[requestCount] = Request({\r\n            requestID: requestCount,\r\n            from: msg.sender,\r\n            to: _patientAddress,\r\n            isAccess:\"No\",\r\n            treatMent:\"\"\r\n        });\r\n\r\n        // Update requested service in ServiceProvider\r\n        patients[_patientAddress].requestID = requestCount;\r\n\r\n        // Update requested service in Client\r\n        doctors[msg.sender].requestID = requestCount;\r\n    }\r\n    function sendTreatMent(uint _requestID,string calldata _medicine) external {\r\n        require(doctors[msg.sender].doctorAddress != address(0), \"Only clients can request services\");\r\n        requests[_requestID].isAccess = \"Full\";\r\n        requests[_requestID].treatMent = _medicine;\r\n    }\r\n    function giveAccess(uint _requestID) external {\r\n        require(patients[msg.sender].patientAddress != address(0), \"Only service providers can check requested services\");\r\n        requests[_requestID].isAccess = \"Yes\";\r\n    }\r\n    function declineRequest(uint _requestID) external {\r\n        require(patients[msg.sender].patientAddress != address(0), \"Only service providers can check requested services\");\r\n        requests[_requestID].isAccess = \"No\";\r\n        address patientAddress1 = requests[_requestID].to;\r\n        address doctorAddress1 = requests[_requestID].from;\r\n        patients[patientAddress1].requestID = 0;\r\n        doctors[doctorAddress1].requestID = 0;\r\n    }\r\n}",
  "sourcePath": "D:\\GOPAL DATA\\iit ropar\\SUBJECTS\\CS-540\\Vaibhav Bhaiya Project\\contracts\\Contract.sol",
  "compiler": {
    "name": "solc",
    "version": "0.5.1+commit.c8a2cb62.Emscripten.clang"
  },
  "schemaVersion": "3.4.16",
  "updatedAt": "2023-11-25T17:35:57.390Z",
  "networkType": "ethereum",
  "devdoc": {
    "methods": {}
  },
  "userdoc": {
    "methods": {}
  }
}